:100000000C943F220C9470220C9470220C94702259
:100010000C9470220C9470220C9470220C94702218
:100020000C9470220C9470220C9470220C94702208
:100030000C9470220C9470220C9470220C947022F8
:100040000C9470220C9415500C9470220C94702215
:100050000C9470220C9470220C94554B0C9434B771
:100060000C9470220C94A6880C9470220C9470222C
:100070000C9470220C9470220C9470220C947022B8
:100080000C9470220C9470220C9470220C947022A8
:100090000C9470220C9470220C9470220C94702298
:1000A0000C9470220C9470220C9470220C94702288
:1000B0000C9470220C9470220C9470220C94702278
:1000C0000C9470220C9470220C9470220C94702268
:1000D0000C9470220C9470220C9470220C94702258
:1000E0000C947022084AD73B3BCE016E84BCBFFD06
:1000F000C12F3D6C74319ABD56833DDA3D00C77FF8
:1001000011BED9E4BB4C3E916BAAAABE0000008090
:100110003F05A84CCDB2D44EB93836A9020C50B91F
:10012000918688083CA6AAAA2ABE000000803F004B
:100130004E414E494E495459494E46CDCCCC3D0ACC
:10014000D7233C17B7D13877CC2B329595E6241FAF
:10015000B14F0A000020410000C84200401C462068
:10016000BCBE4CCA1B0E5AAEC59D7400407A10F33B
:100170005A00A0724E18090010A5D4E80000E876D5
:1001800048170000E40B54020000CA9A3B0000002C
:10019000E1F505000080969800000040420F000045
:1001A00000A08601000000102700000000E8030006
:1001B0000000006400000000000A000000000001D0
:1001C00000000000002C76D888DC674F0823DFC1D0
:1001D000DFAE59E1B1B796E5E3E453C63AE651998B
:1001E0007696E8E6C28426EB898C9B62ED407C6FB4
:1001F000FCEFBC9C9F40F2BAA56FA5F490055A2A6B
:10020000F75C936B6CF9676DC11BFCE0E40D47FE76
:10021000F520E6B500D0ED902E030094357705006B
:1002200080841E080000204E0A000000C80C3333F2
:1002300033330F986E12831141EF8D2114893BE601
:100240005516CFFEE6DB18D1844B381BF77C1D908A
:100250001DA4BBE424203284725E228100C9F124F3
:10026000ECA1E53D270000000000000000000000B8
:100270000000002042000020420000204100000059
:10028000005761726E696E673A20486F6D696E67DC
:100290002042756D702044697669736F72203C202E
:1002A000310A000202040000A0400000A04000004B
:1002B00000400000AF4300009B430000C843FFFF25
:1002C000FF7C3C3E5E2B3D3F2F5B5D3B2C2A225C3E
:1002D00000454550524F4D2064697361626C6564FE
:1002E0000A0048617264636F6465642044656661F6
:1002F000756C742053657474696E6773204C6F61FC
:100300006465640A00F4010000F40100002C01009F
:1003100000E80300000000FA450000FA450000A0D4
:10032000410000C8410000A0420000A0420000C8F7
:10033000433333B94220440020490020204D33305C
:10034000312050005049442073657474696E67739E
:100350003A0A0020460020420020480020204D316B
:1003600034352053004D6174657269616C20686595
:100370006174757020706172616D65746572733A35
:100380000A00205A0020590020204D3230362058D3
:1003900000486F6D65206F66667365743A0A0020C9
:1003A0004500205A002059002058002042002054C7
:1003B0000020204D323035205300416476616E6359
:1003C00065643A20533C6D696E5F66656564726171
:1003D00074653E20543C6D696E5F74726176656C25
:1003E0005F66656564726174653E20423C6D696E4E
:1003F0005F7365676D656E745F74696D655F6D735E
:100400003E20583C6D61785F78795F6A65726B3E1B
:10041000205A3C6D61785F7A5F6A65726B3E204559
:100420003C6D61785F655F6A65726B3E0A002054BF
:100430000020520020204D323034205000416363B0
:10044000656C65726174696F6E2028756E6974736E
:100450002F7332293A20503C7072696E745F616369
:1004600063656C3E20523C726574726163745F61B7
:100470006363656C3E20543C74726176656C5F61A9
:100480006363656C3E0A00204500205A0020590035
:1004900020204D3230312058004D6178696D756DE6
:1004A00020416363656C65726174696F6E202875A5
:1004B0006E6974732F7332293A0A00204500205A5E
:1004C0000020590020204D3230332058004D6178F3
:1004D000696D756D20666565647261746573202849
:1004E000756E6974732F73293A0A00204500205AEB
:1004F0000020590020204D39322058005374657077
:10050000732070657220756E69743A0A0020204D60
:100510003230302044300A0020204D323030205418
:100520003120440020204D323030204400204469E6
:100530007361626C65640A0046696C616D656E7416
:100540002073657474696E67733A0020204D3134EE
:10055000392043203B20556E69747320696E204317
:10056000656C736975730A002020473231202020A2
:10057000203B20556E69747320696E206D6D0A00F2
:100580007A5F6D696E3A2000795F6D696E3A20007E
:10059000785F6D696E3A20005265706F7274696E93
:1005A0006720656E6473746F702073746174757303
:1005B0000A0020746F6F206C6F6E6720657874720C
:1005C0007573696F6E2070726576656E7465640A06
:1005D0000020636F6C6420657874727573696F6E48
:1005E0002070726576656E7465640A0024F4D430F8
:1005F00050C38E20C2A24017828B7011127A910DC7
:10060000816CD90AA861E108C758660761514306A1
:100610001E4B5D05C145A7041A411104093D98030D
:10062000713931034036DB0265339102D430540214
:10063000802E1D02632CEE01752AC501B028A00191
:10064000102781018F2564012B244B01E022340106
:10065000AC211F018D200D01801FFC00841EED00C8
:10066000971DDF00B81CD200E61BC600201BBC0093
:10067000641AB200B219A8000A19A0006A189900F9
:10068000D117910040178B00B516840031167E00FB
:10069000B31579003A157300C7146F0058146A0037
:1006A000EE1366008813630025135E00C7125B001B
:1006B0006C12570015125400C111510070114F00F7
:1006C00021114B00D61049008D1047004610440000
:1006D00002104200C00F4000800F3E00420F3C005D
:1006E000060F3B00CB0E3800930E37005C0E350032
:1006F000270E3400F30D3200C10D3100900D300093
:10070000600D2E00320D2D00050D2C00D90C2B0094
:10071000AE0C2900850C29005C0C2700350C270045
:100720000E0C2600E80B2400C40B2400A00B2300B1
:100730007D0B23005A0B2100390B2100180B2000E0
:10074000F80A1F00D90A1E00BB0A1E009D0A1D00E0
:10075000800A1D00630A1C00470A1B002C0A1B00AC
:10076000110A1A00F7091A00DD091900C409190055
:10077000AB091900920917007B09180063091700DB
:100780004C09160036091600200916000A09150042
:10079000F5081500E0081400CC081400B80814008F
:1007A000A4081400900813007D0812006B081300C1
:1007B00058081200460812003408110023081100DE
:1007C0001208110001081100F0071000E0071000E6
:1007D000D0071000C0071000B0070F00A1071000DD
:1007E00091070E0083070F0074070F0065070E00C6
:1007F00057070E0049070E003B070D002E070E009D
:1008000020070D0013070D0006070D00F9060C0068
:10081000ED060D00E0060C00D4060C00C8060C0026
:10082000BC060C00B0060C00A4060B0099060C00D8
:100830008D060B0082060B0077060B006C060B0082
:1008400061060A0057060B004C060A0042060A0021
:1008500038060A002E060A0024060A001A060A00B4
:100860001006090007060A00FD050900F405090045
:10087000EB050900E2050900D9050900D0050900CA
:10088000C7050900BE050900B5050800AD0508004B
:10089000A50509009C050800940508008C050800C2
:1008A000840508007C050800740508006C05070035
:1008B000650508005D050700560508004E050700A0
:1008C0004705070040050800380507003105070007
:1008D0002A050700230507001C050600160507006A
:1008E0000F0507000805060002050700FB040600C7
:1008F000F5040700EE040600E8040600E204070021
:10090000DB040600D5040600CF040600C904060077
:10091000C3040600BD040600B7040600B1040500C8
:10092000AC040600A6040600A00405009B04060013
:1009300095040500900406008A040500850405005E
:10094000800406007A0405007504050070040500A3
:100950006B04050066040500610405005C040500E5
:1009600057040500520405004D0405004804050025
:10097000430405003E0404003A0405003504050064
:10098000300404002C04050027040400230405009F
:100990001E0404001A0404001604050011040400D7
:1009A0000D0404000904050004040400000404000C
:1009B000FC030400F8030400F4030400F003040043
:1009C000EC030400E8030400E4030400E003040073
:1009D000DC030400D8030400D4030400D0030400A3
:1009E000CC030400C8030300C503030024F404D9A6
:1009F000201BC40C5C0E9804C4095F0265077101DA
:100A0000F405F900FB04B30048048700C103690042
:100A10005803550003034500BE023A00840231002A
:100A200053022A002902250004022000E4011C00D0
:100A3000C8011900AF0117009801140084011300C8
:100A4000710110006101100051010E0043010D0001
:100A500036010B002B010B0020010B0015010900D2
:100A60000C01090003010800FB000800F300080066
:100A7000EB000700E4000600DE000600D8000600D8
:100A8000D2000600CC000500C7000500C20005002A
:100A9000BD000400B9000400B5000400B10004006A
:100AA000AD000400A9000400A5000300A20003009B
:100AB0009F0004009B0003009800030095000200C3
:100AC00093000300900003008D0002008B000300E0
:100AD00088000200860002008400030081000200FA
:100AE0007F0002007D0002007B000200790002000E
:100AF000770001007600020074000200720001001D
:100B0000710002006F0002006D0001006C00020025
:100B10006A00010069000200670001006600010030
:100B20006500010064000200620001006100010034
:100B3000600001005F0002005D0001005C00010038
:100B40005B0001005A00010059000100580001003B
:100B5000570001005600010055000100540001003B
:100B60005300000053000100520001005100010039
:100B7000500001004F0001004E0000004E00010037
:100B80004D0001004C0001004B0000004B00010033
:100B90004A0001004900010048000000480001002F
:100BA000470001004600000046000100450000002B
:100BB0004500010044000100430000004300010023
:100BC000420000004200010041000000410001001D
:100BD000400001003F0000003F0001003E00000017
:100BE0003E0001003D0000003D0001003C0000000F
:100BF0003C0000003C0001003B0000003B00010005
:100C00003A0000003A0001003900000039000100FC
:100C100038000000380000003800010037000000F4
:100C200037000100360000003600000036000100E9
:100C300035000000350000003500010034000000E0
:100C400034000000340001003300000033000000D5
:100C500033000100320000003200000032000100C9
:100C600031000000310000003100010030000000C0
:100C700030000000300001002F0000002F000000B5
:100C80002F0000002F0001002E0000002E000000A9
:100C90002E0001002D0000002D0000002D0000009E
:100CA0002D0001002C0000002C0000002C00000092
:100CB0002C0001002B0000002B0000002B00000086
:100CC0002B0001002A0000002A0000002A0000007A
:100CD0002A0001002900000029000000290000006E
:100CE0002900000029000100280000002800000061
:100CF0002800000028000000280001002700000054
:100D00002700000027000000270000002700010046
:100D1000260000002600000026000000260000003B
:100D2000260001002500000025000000250000002D
:100D3000250000002500000025000100240000001F
:100D40002400000024000000240000002400010012
:100D50002300000023000000230000002300000007
:100D600023000000230000002300010022000000F7
:100D700022000000220000002200000022000000EB
:100D800022000100210000002100000021000000DD
:100D900021000000210000002100000021000100CE
:100DA00020000000200000002000000020000000C3
:100DB00020000000200000002000000020000100B2
:100DC0001F0000001F0000001F0000001F000000A7
:100DD0001F0000001F0000001F0001001E00000097
:100DE0001E0000001E0000001E0000004D383420D0
:100DF000582059205A2045006265640A002C20734F
:100E0000797374656D2073746F7070656421204808
:100E100065617465725F49443A200070012C01904D
:100E2000012701B0012201C0011D01F001180110CC
:100E300002130130020E016002090190020401C098
:100E400002FF000003FA004003F5008003F000D029
:100E500003EB002004E6007004E100E004DC004045
:100E600005D700C005D2004006CD00D006C80080DE
:100E700007C3003008BE00F008B900C009B400B0D4
:100E80000AAF00B00BAA00D00CA500000EA00050C5
:100E90000F9B00C01096005012910000148C00C0EF
:100EA000158700B0178200B0197D00D01B780000B4
:100EB0001E730040206E0090226900F02464004000
:100EC000275F0090295A00E02B5500102E5000207B
:100ED000304B0010324600E033410090353C0010AA
:100EE00037370070383200A0392D00B03A2800A002
:100EF0003B2300603C1E00103D1900903D14001083
:100F00003E0F00703E0A00C03E0500003F0000405A
:100F10003FFBFF803FF6FFC03FF1FF4572723A2072
:100F20004D494E54454D5020424544004572723A59
:100F3000204D494E54454D50004D494E54454D505D
:100F400020747269676765726564004572723A2041
:100F50004D415854454D5020424544004572723A27
:100F6000204D415854454D50004D415854454D5029
:100F700020747269676765726564004D61696E000F
:100F8000AEAFB0004D61696E004D6F7665205800C0
:100F9000C1B22058004D6F76652058004D6F7665C0
:100FA000205900C1B22059004D6F76652059004D7F
:100FB0006F7665205A00C1B2205A004D6F766520C9
:100FC0005A004E6F7A7A6C6500D3D4004E6F7A7AED
:100FD0006C650042656400C4C700426564004661F8
:100FE0006E20737065656400D5D6D1D20046616EFF
:100FF00020737065656400436F6E74726F6C00D807
:10100000D900436F6E74726F6C004D6F74696F6EB0
:1010100000DFB2004D6F74696F6E000000000000C9
:1010200000000000000000000000000000000000C0
:1010300000000000000000000000000000000000B0
:1010400000000000000000000000000000000000A0
:101050000000000000000000000000000000000090
:101060000000000000000000000000000000000080
:101070000000000000000000000000000000000070
:101080000000000000000000000000000000000060
:101090000000000000000000000000000000000050
:1010A0000000000000000000000000000000000040
:1010B0000000000000000000000000000000000030
:1010C0000000000000000000000000000000000020
:1010D000000007C7C001F800080000000000000081
:1010E000046660018C000000040000000000082677
:1010F00030018400000004000000000000661001C0
:101100008400000006000000000000C61001844CAE
:1011100008379F83C260000001C610019C70083828
:1011200084046380000000661001F8600830840CBD
:10113000630000000026100180600830840FE20088
:1011400000000026300180400830840802000000C2
:101150000C66300180400830860C2200000007C772
:10116000E001804008308246C20000000387000191
:101170008040083081C382000000000000000000B1
:10118000000000000000000000000000000000005F
:10119000000000000000000000000000000000004F
:1011A000000000000000000000000000000000003F
:1011B000000000000000000000000000000000002F
:1011C000000000000000000000000000000000001F
:1011D000000000000000000000000000000000000F
:1011E00000000000000000000000000000000000FF
:1011F00000000000000000000000000000000000EF
:1012000000000000000000000000000000000000DE
:1012100000000000000000000000000000000000CE
:101220000000000000000000000000000000002599
:10123000753A2530327500253032753A25303275D1
:101240000025756420253032753A25303275005AF4
:1012500000590058000920000000000000000000B4
:1012600000000000003FFFF0000000000000000050
:1012700000000000003800700000000000000000C6
:10128000000000000030FC30000000000000000002
:10129000000000000020FC10003E0FF000000000E5
:1012A000000000000020781000C186180000000037
:1012B000000000000020301000C1860C000000007B
:1012C00000000000002C00D000018604001FE00098
:1012D00000104100002E31D000030604003FF00052
:1012E00000082080002F7BD0001F0604003FF00084
:1012F00000082080002F7BD000030604003FF00090
:1013000000104100002E31D000018604001FE000D3
:1013100000208200002C00D000C1860C001FE000DD
:10132000004104000020301000C18618003FF0008A
:101330000041040000207810003E0FF0003FF00054
:10134000002082000020FC1000000000003FF000A0
:10135000001041000030FC3000000000000FC00011
:10136000000000000038007000000000000780004E
:1013700000FFFFC0003FFFF000000000000300007E
:1013800000FFFFC00000000000000000000000009F
:1013900000000000003FFFF000000000000000001F
:1013A0000000000000380070000000000000000095
:1013B000000000000030FC300000000000000000D1
:1013C000000000000020FC10003E0FF000000000B4
:1013D000000000000020781000C186180000000006
:1013E000000000000020301000C1860C000000004A
:1013F00000000000002C00D000018604001FE00067
:1014000000104100002E31D000030604003FF00020
:1014100000082080002F7BD0001F0604003FF00052
:1014200000082080002F7BD000030604003FF0005E
:1014300000104100002E31D000018604001FE000A2
:1014400000208200002C00D000C1860C001FE000AC
:10145000004104000020301000C18618003FF00059
:101460000041040000207810003E0FF0003FF00023
:10147000002082000020FC1000000000003FF0006F
:10148000001041000030FC3000000000000FC000E0
:10149000000000000038007000000000000780001D
:1014A00000FFFFC0003FFFF000000000000300004D
:1014B00000FFFFC00000000047323820583020599C
:1014C000300000473238205830205930004D31303C
:1014D0003920532569004D313430205325690047A8
:1014E000323820583020593000542569004D3130B1
:1014F000362053323535004D3130392053256900BF
:101500004D31393020532569005072696E74206165
:10151000626F7274656400526573756D65207072D8
:10152000696E743F00F4F5CAF33F00526573756D40
:1015300065207072696E743F005965730059657358
:1015400000596573004E6F004E6F004E6F00496E7C
:10155000666F2073637265656E00ECEDEEEF004917
:101560006E666F2073637265656E0054756E6500FC
:10157000CFF00054756E65004C616E6775616765EC
:10158000004C616E6775616765004C616E677561DF
:101590006765005061757365207072696E7400F143
:1015A000F2CAF3005061757365207072696E740041
:1015B000526573756D65207072696E7400F4F5CABA
:1015C000F300526573756D65207072696E74005317
:1015D000746F70207072696E7400F2F6CAF3005373
:1015E000746F70207072696E74005072696E74202E
:1015F00066726F6D205344005344A8005072696EA8
:10160000742066726F6D205344004E6F2053442047
:101610006361726400F9A8004E6F20534420636137
:10162000726400496E69742E2053442063617264B1
:1016300000496E69742E205344206361726400492E
:101640006E69742E2053442063617264004D323100
:1016500000537065656400D1D20053706565640005
:10166000466C6F7700CCADD1D200466C6F770046E8
:101670006C6F77203100CCADD1D2203100466C6F39
:1016800077203100466C6F77203200CCADD1D2206C
:101690003200466C6F772032004732380041757453
:1016A0006F20686F6D6500BBBCBD004175746F2015
:1016B000686F6D650044697361626C652073746561
:1016C000707065727300B5B6B7B8B9BA0044697383
:1016D00061626C6520737465707065727300436F2E
:1016E0006F6C646F776E00C8C900436F6F6C646F76
:1016F000776E005072656865617420504C4100C37C
:10170000C420504C41005072656865617420504C93
:101710004100507265686561742041425300C3C442
:101720002041425300507265686561742041425304
:101730000053776974636820706F776572206F66F5
:101740006600B9CBB5B60053776974636820706FD3
:10175000776572206F6666005377697463682070DE
:101760006F776572206F6E00B9CBCAB3005377698B
:1017700074636820706F776572206F6E004D38302B
:10178000004D3831004D3834004578747275646509
:101790007200CCADBA004578747275646572004D04
:1017A0006F7665206178697300C1B2CE004D6F76A7
:1017B000652061786973004D6F76652031306D6DFD
:1017C00000C1B22031306D6D004D6F766520313033
:1017D0006D6D004D6F766520316D6D00C1B22031A9
:1017E0006D6D004D6F766520316D6D004D6F7665C6
:1017F00020302E316D6D00C1B220302E316D6D0064
:101800004D6F766520302E316D6D005072657061C0
:10181000726500A4A500507265706172650045781C
:101820007472756465723100CCADBA31004578745C
:1018300072756465723100457874727564657232D0
:1018400000CCADBA320045787472756465723200AE
:10185000456E676C69736800456E676C69736800F4
:10186000456E676C697368004368696E65736500EF
:101870004368696E657365004368696E65736500EA
:101880005072656865617420504C4120636F6E66CC
:10189000005072656865617420504C4120BEBF00E5
:1018A0005072656865617420504C4120636F6E66AC
:1018B00000507265686561742041425320636F6E09
:1018C0006600507265686561742041425320BEBF56
:1018D00000507265686561742041425320636F6EE9
:1018E000660054656D706572617475726500C9D269
:1018F0000054656D706572617475726500566D6136
:1019000078205800566D6178205800566D61782017
:101910005800566D6178205900566D617820590045
:10192000566D6178205900566D6178205A00566DC9
:101930006178205A00566D6178205A00566D6178A2
:10194000204500566D6178204500566D6178204530
:1019500000566D696E00566D696E00566D696E00B9
:101960005654726176206D696E005654726176200D
:101970006D696E005654726176206D696E00416328
:1019800063656C00416363656C00416363656C0073
:10199000412D7265747261637400412D72657472B9
:1019A00061637400412D7265747261637400412D2E
:1019B00074726176656C00412D74726176656C009D
:1019C000412D74726176656C00416D61782058001C
:1019D000416D6178205800416D6178205800416D5B
:1019E0006178205900416D6178205900416D61781E
:1019F000205900416D6178205A00416D6178205A6C
:101A000000416D6178205A00416D617820450041A8
:101A10006D6178204500416D617820450056782D34
:101A20006A65726B0056782D6A65726B0056782D68
:101A30006A65726B0056792D6A65726B0056792D56
:101A40006A65726B0056792D6A65726B00567A2D45
:101A50006A65726B00567A2D6A65726B00567A2D34
:101A60006A65726B0056652D6A65726B0056652D4E
:101A70006A65726B0056652D6A65726B00587374E7
:101A80006570732F6D6D005873746570732F6D6D75
:101A9000005873746570732F6D6D005973746570A1
:101AA000732F6D6D005973746570732F6D6D0059D0
:101AB00073746570732F6D6D005A73746570732F36
:101AC0006D6D005A73746570732F6D6D005A737469
:101AD0006570732F6D6D004573746570732F6D6D38
:101AE000004573746570732F6D6D00457374657078
:101AF000732F6D6D00434F4D4D554E494341544931
:101B00004F4E0044525952554E004552524F525377
:101B100000494E464F004543484F004B494C4C4509
:101B2000442E200053544F505045442E20005072F4
:101B3000696E7465722073746F707065642064756B
:101B40006520746F206572726F72732E20466978FB
:101B500020746865206572726F7220616E642075F2
:101B60007365204D39393920746F20726573746143
:101B700072742E202854656D70657261747572657B
:101B80002069732072657365742E20536574206913
:101B90007420616674657220726573746172746911
:101BA0006E67290A004E6F204C696E65204E756D78
:101BB000626572207769746820636865636B73750A
:101BC0006D2C204C617374204C696E653A20004E78
:101BD0006F20436865636B73756D20776974682047
:101BE0006C696E65206E756D6265722C204C617338
:101BF00074204C696E653A2000636865636B737589
:101C00006D206D69736D617463682C204C61737411
:101C1000204C696E653A20004C696E65204E756DEA
:101C2000626572206973206E6F74204C617374203A
:101C30004C696E65204E756D6265722B312C204C9F
:101C4000617374204C696E653A20004D313130006B
:101C50004D3331004D383420582059205A2045004A
:101C600053442072656164206572726F720A004489
:101C70006F6E65207072696E74696E672066696C3C
:101C8000650A0020496E76616C696420657874721B
:101C90007564657220000000000000000000000074
:101CA00000000000AF4300009B430000C8434465B0
:101CB0006C6574696F6E206661696C65642C204682
:101CC000696C653A200046696C652064656C6574D2
:101CD00065643A006F70656E206661696C65642C9E
:101CE0002046696C653A2000202F002042403A00CF
:101CF00020403A0048656174696E6720646F6E65C4
:101D00002E0020573A00457874727564657220255C
:101D100073003344207072696E7465722D32302DF9
:101D200044432D563100205A3A0020593A002043AE
:101D30006F756E7420583A0020453A00205A3A00D8
:101D400020593A00583A0023646566696E65202080
:101D500044454641554C545F4B64200023646566FE
:101D6000696E65202044454641554C545F4B6920BF
:101D70000023646566696E65202044454641554CE4
:101D8000545F4B702000504944204175746F747546
:101D90006E652066696E697368656421205075748C
:101DA00020746865206C617374204B702C204B6923
:101DB00020616E64204B6420636F6E7374616E7477
:101DC000732066726F6D2062656C6F7720696E7428
:101DD0006F20436F6E66696775726174696F6E2EEE
:101DE000680A00504944204175746F74756E65200F
:101DF0006661696C6564212074696D656F75740A2C
:101E000000504944204175746F74756E6520666199
:101E1000696C6564212054656D70657261747572BA
:101E20006520746F6F20686967680A00204B643A08
:101E30002000204B693A2000204B703A20000A20F5
:101E4000436C617373696320504944200A00205435
:101E5000753A2000204B753A2000206D61783A20B9
:101E600000206D696E3A200020643A2000206269EB
:101E700061733A200047322F47332062616420703B
:101E80006172616D65746572730A00536C6565708B
:101E90002E2E2E003344207072696E7465722D32BE
:101EA000302D44432D563100526573756D696E6750
:101EB000207072696E7400436C69636B20746F20CC
:101EC000726573756D652E2E2E004E6F206D6F76C8
:101ED000652E00456E642066696C65206C697374BC
:101EE0000A00426567696E2066696C65206C6973DB
:101EF000740A005344207072696E74696E672062C0
:101F000079746520004E6F74205344207072696E9E
:101F100074696E670A002569730025696D2025695B
:101F200073002569682025696D202569730025697E
:101F300064202569682025696D202569730025695D
:101F40007920256964202569682025696D20256927
:101F500073005072696E742074696D653A20005088
:101F6000726F7465637465642050696E0A00457809
:101F70007472756465722025730033442070726931
:101F80006E7465722D32302D44432D5631006F66CC
:101F90006600161B111B0A1B031BF51A444542550C
:101FA000473A004B494C4C45442E20004D313133CB
:101FB0002053006F6B0042656420646F6E652E00D5
:101FC00020573A004265642048656174696E672E47
:101FD000003344207072696E7465722D32302D4466
:101FE000432D56310050533A310A0050533A300ACB
:101FF000003344207072696E7465722D32302D4446
:10200000432D5631204F66662E004361703A454D90
:10201000455247454E43595F5041525345523A301D
:102020000A004361703A434153455F4C4947485465
:102030005F4252494748544E4553533A300A004391
:1020400061703A544F47474C455F4C494748545399
:102050003A300A004361703A534F46545741524553
:102060005F504F5745523A310A004361703A4C4530
:1020700056454C494E475F444154413A300A00436B
:1020800061703A5A5F50524F42453A300A004361FC
:10209000703A4155544F4C4556454C3A300A00432E
:1020A00061703A5052494E545F4A4F423A310A00E9
:1020B0004361703A50524F47524553533A300A00E9
:1020C0004361703A4155544F5245504F52545F54FA
:1020D000454D503A310A004361703A454550524FE0
:1020E0004D3A300A004649524D574152455F4E41E4
:1020F0004D453A4D61726C696E2020283344207042
:1021000072696E742920534F555243455F434F44C3
:10211000455F55524C3A68747470733A2F2F676953
:10212000746875622E636F6D2F4D61726C696E46B7
:1021300069726D776172652F4D61726C696E2050A6
:10214000524F544F434F4C5F56455253494F4E3AAE
:10215000312E30204D414348494E455F545950453A
:102160003A3344207072696E7465722D32302D449A
:10217000432D56312045585452554445525F434FE4
:10218000554E543A3220555549443A636564653298
:102190006132662D343161322D343734382D396255
:1021A00031322D6335356336326633363766660A2B
:1021B000002F2F20004D31343520533C696E64656B
:1021C000783E206F7574206F662072616E6765209F
:1021D00028302D31290A0053657474696E672054C4
:1021E000726176656C20416363656C6572617469C8
:1021F0006F6E3A200053657474696E67205265747F
:102200007261637420416363656C65726174696FA8
:102210006E3A200053657474696E67205072696E5F
:102220007420416363656C65726174696F6E3A20F6
:102230000053657474696E67205072696E74206112
:102240006E642054726176656C20416363656C65D1
:10225000726174696F6E3A2000205A00205900584C
:102260000020204D61783A2000205A002059005863
:102270000020204D696E3A20004F6E20004F6666A8
:1022800000536F667420656E6473746F70733A20C8
:1022900000000136372603FF3C3D380EFF2E303E4E
:1022A00012FFFF0C0809FFFFFF1A1C18FFFF242272
:1022B0001EFFFF08440AFF43FFFFFFFFFFFF2064EC
:1022C0003A0020693A0020703A0043290A0061620E
:1022D0006C656420286D696E2074656D7020004304
:1022E0006F6C6420657874727564657320617265C3
:1022F00020004572723A20546F6F2066617221008F
:10230000546F6F206661722066726F6D2072656611
:102310006572656E636520706F696E740A004F6642
:102320006673657473206170706C696564004E6FCC
:102330002063617365206C696768740A0041637487
:102340006976652045787472756465723A20005527
:102350006E6B6E6F776E20636F6D6D616E643A2089
:102360002200526573656E643A20006F6B00207422
:102370006F6F206C6F6E6720657874727573696F0C
:102380006E2070726576656E7465640A0020636FF6
:102390006C6420657874727573696F6E20707265F5
:1023A00076656E7465640A00627573793A207061AF
:1023B0007573656420666F7220696E7075740A00AB
:1023C000627573793A2070617573656420666F7207
:1023D00020757365720A00627573793A2070726FA6
:1023E00063657373696E670A004B494C4C45442E14
:1023F00020004B494C4C2063617573656420627901
:10240000204B494C4C20627574746F6E2F70696E4E
:102410000A004B494C4C45442E20004B494C4C2063
:1024200063617573656420627920746F6F206D75C8
:10243000636820696E6163746976652074696D658F
:10244000202D2063757272656E7420636F6D6D61EF
:102450006E643A2000506C65617365207265736527
:1024600074005052494E5445522048414C54454402
:10247000005072696E7465722068616C7465642EB8
:10248000206B696C6C28292063616C6C6564210A7F
:102490000062696E004D31313720494E56414C493A
:1024A0004420444154412E004D313137205072694F
:1024B0006E74696E672E2E2E004730205A257300E9
:1024C000473932205A2573204525730062696E0012
:1024D00056656C6F636974790056656C6F636974D7
:1024E000790056656C6F6369747900416363656C4C
:1024F00065726174696F6E00416363656C657261DA
:1025000074696F6E00416363656C65726174696FB5
:102510006E004A65726B004A65726B004A65726BA9
:102520000053746570732F6D6D0053746570732F55
:102530006D6D0053746570732F6D6D0043616E6E29
:102540006F7420656E746572207375626469723A87
:102550002000022E2E004361726420696E73657242
:1025600074656400A8A9AAAB004361726420696E17
:1025700073657274656400436172642072656D6F87
:1025800076656400A8A9ACAD0043617264207265F1
:102590006D6F766564004D6F76696E672E2E2E0026
:1025A0004572723A204368616E67652046696C61C6
:1025B0006D656E74004572723A204368616E67659E
:1025C0002046696C616D656E740000002100240076
:1025D00027002A002D003000330001010000040113
:1025E00007010A0100002200250028002B002E0010
:1025F0003100340002010000050108010B01000058
:1026000020002300260029002C002F0032000001AA
:102610000000030106010901050505050705080875
:102620000808020202020A0A08080404040401015C
:102630000101010101010303030303030303040771
:1026400007070C0C0C0C0C0C0C0C02020202060608
:102650000606060606060B0B0B0B0B0B0B0B0102FB
:1026600010202008081020401020408002010201A4
:10267000080402010102040810204080804020105C
:1026800008040201800402018040201008040201B5
:10269000080402010102040810204080010204081D
:1026A0001020408000000A0B02090C0D0E080703E1
:1026B0000401000000000000000000000000000015
:1026C000000000000000000000000000000000000A
:1026D00012111000000000000000000000000000C7
:1026E000000000000000000000002020506C616E1F
:1026F0006E657242756666657242797465733A20DA
:10270000002046726565204D656D6F72793A200034
:10271000436F6D70696C65643A204A756C20333084
:1027200020323032300A00207C20417574686F728C
:102730003A2028E59889E7A6BE4D61726C696E3132
:102740002E312E36290A00323031372D31302D31DD
:10275000302031323A303000204C61737420557093
:1027600064617465643A20000A004D61726C696EA0
:102770000020536F667477617265205265736574CB
:102780000A00205761746368646F6720526573653F
:10279000740A002042726F776E206F757420526544
:1027A0007365740A002045787465726E616C2052FE
:1027B000657365740A00506F77657255700A00730F
:1027C000746172740A006572726F72207772697434
:1027D000696E6720746F2066696C650A00456E64D7
:1027E00073746F7073202563202563202563202573
:1027F0006300205A3A0020593A0020583A00656E8A
:102800006473746F7073206869743A2000446F6E4B
:102810006520736176696E672066696C652E0A00B3
:102820004D32390057726974696E6720746F206683
:10283000696C653A20006F70656E206661696C6531
:10284000642C2046696C653A20006F70656E2066C6
:1028500061696C65642C2046696C653A20004669A4
:102860006C652073656C65637465640A0020536948
:102870007A653A200046696C65206F70656E656404
:102880003A20006F70656E206661696C65642C206B
:1028900046696C653A20002066696C653A20004EF6
:1028A0006F7720002220706F7300222070617265A4
:1028B0006E743A2200535542524F5554494E4520AA
:1028C00043414C4C207461726765743A22004B4955
:1028D0004C4C45442E2000747279696E6720746FE9
:1028E0002063616C6C207375622D67636F64652073
:1028F00066696C6573207769746820746F6F206DEA
:10290000616E79206C6576656C732E204D41582080
:102910006C6576656C2069733A0043616E6E6F7406
:10292000206F70656E207375626469722000534475
:102930002063617264206F6B0A006F70656E526F66
:102940006F74206661696C65640A00766F6C756DE2
:10295000652E696E6974206661696C65640A00455C
:1029600072726F723A00534420696E697420666116
:10297000696C0A006175746F25692E67004D3234E9
:10298000004D323320257300656E7175657565697C
:102990006E672022006563686F3A002E0A006F7030
:1029A000656E206661696C65642C2046696C653AC9
:1029B000200057726974696E6720746F2066696CB5
:1029C000653A2000000C0B00FE070192032120FF56
:1029D000FF0AFF07FF00000006000A0107070602C2
:1029E0000080808080800080030202060105A0A094
:1029F0000507070600005050F850F850500507072B
:102A00000600002078A07028F020050707060000C7
:102A1000C0C810204098180507070600006090A065
:102A200040A89068020303060104C0408003070722
:102A30000601002040808080402003070706010037
:102A40008040202020408005050506000120A87058
:102A5000A8200505050600012020F8202002030318
:102A60000602FFC04080050101060003F8020202D1
:102A7000060200C0C00505050600010810204080C0
:102A8000050707060000708898A8C8887003070724
:102A900006010040C040404040E005070706000036
:102AA000708808708080F8050707060000F810207D
:102AB000100808F005070706000010305090F810C5
:102AC00010050707060000F880F008088870050761
:102AD00007060000708080F08888700507070600F0
:102AE00000F8081020202020050707060000708845
:102AF0008870888870050707060000708888780845
:102B00000870020505060200C0C000C0C00206062B
:102B10000602FFC0C000C040800407070600001086
:102B2000204080402010050303060002F800F8044E
:102B30000707060000804020102040800507070698
:102B400000007088081020002005070706000070AC
:102B5000880868A8A870050707060000708888F82C
:102B6000888888050707060000F08888F08888F0C4
:102B700005070706000070888080808870050707B9
:102B8000060000F08888888888F00507070600009E
:102B9000F88080F08080F8050707060000F8808044
:102BA000F0808080050707060000708880B888885C
:102BB00070050707060000888888F888888801075C
:102BC000070602008080808080808005070706005D
:102BD000003810101010906005070706000088905C
:102BE000A0C0A09088050707060000808080808034
:102BF00080F805070706000088D8A8888888880517
:102C000007070600008888C8A8988888050707066F
:102C1000000070888888888870050707060000F023
:102C20008888F08080800507070600007088888803
:102C3000A89068050707060000F08888F0A0908833
:102C4000050707060000788080700808F005070770
:102C5000060000F82020202020200507070600009D
:102C60008888888888887005070706000088888813
:102C7000888850200507070600008888888888A86B
:102C800050050707060000888850205088880507EF
:102C900007060000888888502020200507070600C6
:102CA00000F80810204080F8030707060000E080C5
:102CB00080808080E0050505060001804020100826
:102CC000030707060000E02020202020E005030382
:102CD000060004205088050101060000F8020202E7
:102CE0000602058040050505060000700878887812
:102CF0000507070600008080B0C88888F005050534
:102D0000060000708080887005070706000008082C
:102D100068988888780505050600007088F8807036
:102D20000507070600003048E04040404005060621
:102D30000600FF7088887808700507070600008085
:102D400080B0C8888888010707060200800080805C
:102D50008080800308080601FF200020202020A09A
:102D600040040707060100808090A0C0A0900307E0
:102D700007060100C04040404040E0050505060050
:102D800000D0A8A8A8A8050505060000B0C8888836
:102D90008805050506000070888888700506060607
:102DA00000FFF08888F080800506060600FF78881E
:102DB00088780808050505060000B0C880808005F1
:102DC000050506000070807008F004070706000083
:102DD0004040E040404030050505060000888888F6
:102DE00098680505050600008888885020050505B7
:102DF0000600008888A8A850050505060000885030
:102E00002050880506060600FF8888887808700527
:102E10000505060000F8102040F80307070601002A
:102E2000204040804040200107070602008080804B
:102E300080808080030707060100804040204040DA
:102E400080050202060003689000000006000A00E8
:102E500000000C000A0000000C000A0000000C003A
:102E60000A0000000C000A0000000C000A0000002C
:102E70000C000A0000000C000A0000000C000A0010
:102E800000000C000A0000000C000A0000000C000A
:102E90000A0000000C000A0000000C000A000000FC
:102EA0000C000A0000000C000A0000000C000A00E0
:102EB00000000C000A0000000C000A0000000C00DA
:102EC0000A0000000C000A0000000C000A000000CC
:102ED0000C000A0000000C000A0000000C000A00B0
:102EE00000000C000A0000000C000A0000000C00AA
:102EF0000A0000000C000A0000000C000A0B0B1670
:102F00000C00FFFFE00200020004000D001480240A
:102F100040C4200400040004000B0B160C00FFF951
:102F2000008A00ABE0AC40AA40AA40AA40AA802197
:102F30000052808C600B0B160C00FF240024003F15
:102F400080440084000400FFE00A0011002080C0DB
:102F5000600B0B160C00FF240024003FC04400044B
:102F600000FFE0090009001120212040E00B0B16B2
:102F70000C00FF20003DE0512091201120FF201186
:102F800020292025E0452080000B0B160C00FF2097
:102F9000807FC00840FFE0110020805F4080203F1C
:102FA0008000007FC00B0B160C00FF224047E0940E
:102FB00080E4802FE04480F48007E03480C4800700
:102FC000E00B0B160C00FF04808FE0490019002F66
:102FD000C0090009002FC0490089000FE00B0B1643
:102FE0000C00FF10003F8051000E003180C0603F98
:102FF0008024803F8024803F800B0B160C00FF2232
:1030000080FA4007E0FA808A808A80FA802280B2C3
:1030100080AAA064E00B0B160C00FF222047409210
:1030200080EFE0220047C0EC4007C03440C7C00436
:10303000400B0B160C00FF08000FC008000800FF33
:10304000E008000E0009800840080008000A0B167E
:103050000C00FFFF800080008080808080FF8080E7
:10306000008000804080407FC00B0B160C00FF47A3
:10307000C04100EFE0410045006960C9204D604952
:10308000204FE0C8200B0B160C00FF0800040004C2
:10309000000A000A000A0011001100208040408050
:1030A000200B0B160C00FF22402200F7E022002329
:1030B000E03520E52025402880294072200B0A14A5
:1030C0000C00004440444044407FC004000400849D
:1030D0002084208420FFE00B0B160C00FF0400006E
:1030E000007FC00400040004007FC004000400044A
:1030F00000FFE00B0B160C00FFFFE0110001C0FE0B
:1031000000488025000400FFE015002480C4600B07
:103110000B160C00FF11007FC044407FC044407F6D
:10312000C00400FFE0040004000400090B160C00BA
:10313000FF1000FF8080808080FF8080808080FF83
:103140008080808080FF800B0B160C00FF710001D7
:103150000003E0F9202120412051208920FA20029B
:103160002004C00B0B160C00FF7FC01100110011D2
:10317000001100FFE0110011002100210041000BAF
:103180000B160C00FF21002200F44057E05020579E
:10319000C094405440244057C094400B0B160C0080
:1031A000FF11000A007FC004000400FFE004000AD1
:1031B0000011002080C0600A0B160C00FF5FC000E9
:1031C0004084408440BF4084408C409440A4408C64
:1031D0004081C00B0B160C00FF240027C0240024E4
:1031E00000FFE000001440248047000C0070000B3A
:1031F0000B160C00FF248004800FC0E48024803F65
:10320000E024802480288050008FE00B0B160C00F7
:10321000FF08000800FF8088808880FF8088808801
:1032200080FFA0882007E00B0B160C00FF278024EE
:1032300080F480248074806C80A480248024A02862
:10324000A030600A0B160C00FFFFC0804080409E3B
:1032500040924092409E4080408040FFC080400BA2
:103260000B160C00FF7FC044005FC050405FC05091
:10327000405FC042004A805240A6200B0B160C0053
:10328000FF040007E004007FC04040404040407F12
:10329000C00000524089200B0B160C00FF47802411
:1032A0008004800480E86020002FC0244022803108
:1032B0000026C00B0B160C00FF7FC04A407FC004E5
:1032C00000FFE004003F80208024802480FFE00B8A
:1032D0000B160C00FF22004FE048204FE0C8004FC3
:1032E000E04AA05AA06FE04AA048600B0B160C0001
:1032F000FFF3C024402A80F100228065E07220A5FF
:1033000040208023002C000B0B160C00FF0400FF54
:10331000E080200000FFE00400240027C0240054C7
:10332000008FE00B0B160C00FF73E01080510023A0
:10333000E0FA202AA022A022A02080214062200BB7
:103340000B160C00FF2200F78022803680E2A025B9
:10335000A0246068200000524089200B0B160C004E
:10336000FF73C0420042007BE04A404A407A404A34
:10337000404240444088400B0B160C00FF0800FF01
:10338000E008001FC030405FC090401FC0104010D8
:103390004010C00B0B160C00FF02007FE042004201
:1033A000005FC0420047004A805240622082000B0A
:1033B0000B160C00FFF3C096409180A660A1009709
:1033C000C091009500E7E0810081000B0B160C0016
:1033D000FF0F8088804F8008808F8040001FC0359D
:1033E00040554095403FE00B0B160C00FF27E020B6
:1033F00080F880208020803880E08020802080201D
:103400008061800B0B160C00FF1FE0910057C01469
:103410004017C0944057C011005540992023000B1D
:103420000B160C00FF208027E0F240218022403460
:1034300020E24022402240224064400B0B160C0048
:10344000FF410041004FE0E920492049206FE0C9D9
:103450002049204920CFE00B0B160C00FF2100F182
:10346000004FE0A920F9202FE03920E92029202F62
:10347000E028200B0B160C00FF8FE049200920CB21
:10348000A049204FE048204BA04AA06BA050E00B81
:103490000B160C00FF7FC00400444024402480042D
:1034A00000FFE004000400040004000B0B160C00F5
:1034B000FF820042001FE0C2005FC052405FC04771
:1034C000004A805240BFE00B0B160C00FF04007F47
:1034D000E048807FE048804F8040005FC048404720
:1034E0008098600B0B160C00FF0100EFE0A100A418
:1034F00040AFE0A440AFE0A920E92002800C600BBF
:103500000B160C00FF14C0F6A0BC60A780A880BFFB
:10351000E0A920EFE009200FE009200B0B160C00BA
:10352000FF7F804080428062805480488048805481
:10353000A062A0406080200B0B160C00FF04007FEF
:10354000E040207FE040007DE054204CA0546064C7
:10355000A08D600B0B160C00FF82005FE0040008DA
:10356000409FE040200A800A804AA092A022600B7F
:103570000B160C00FF41004FE0E8204280444068F9
:1035800020C7C0410041004100CFE00B0B160C00EA
:10359000FF50207D209120FF2011207D20552055B7
:1035A0002054205C2010E00B0B160C00FF3F802005
:1035B000803F802080FFE048007BC0494079404840
:1035C00080FB600B0B160C00FF04000400040024B9
:1035D000802440444044208420040004001C000B4C
:1035E0000B160C00FF040004000400FFE004000AB6
:1035F000000A00110011002080C060090A140A00AE
:1036000000888049000800FF80008000807F8000E3
:10361000800080FF800B0B160C00FF21001200FFC2
:10362000E0000078804A807A804A807A8048805919
:10363000800B0B160C00FF27C000000000EFE021FC
:1036400000220024402FE0202050008FE00B0B16BA
:103650000C00FF20802700F90021C077002100F92D
:10366000E027007120A92020E00B0B160C00FF10B2
:10367000401040FDE0104038C035405240944010AA
:1036800040104010C00B0B160C00FF0040F8400B20
:10369000E008408840524051402140504048408915
:1036A000C00A0B160C00FF840084408480F500865D
:1036B00000840084009400A440C44083C00B0B1617
:1036C0000C00FF11207D001100FFE02900FD4049A2
:1036D000407C8008A0FD600A200B0B160C00FF1731
:1036E000C02440244067C0A1002FE0210023802592
:1036F00040292021000B0B160C00FF0800FFE010F2
:103700000027C020806100AFE021002100210023BC
:10371000000B0B160C00FF24002FE0B400A480A4C3
:10372000A0AAC02A8028802940324024200B0B16F2
:103730000C00FF7FE080003FC020403FC010001F12
:10374000C010402880470038E00B0B160C00FF7FAC
:10375000E040004000400040004000400040004089
:1037600000400080000B0B160C00FFFFE004007F00
:10377000C044407FC044407FC0440024001800E79C
:10378000E00B0B160C00FF11E0FD00450029E0FDE9
:103790004011407D4011405540924034400B0B1683
:1037A0000C00FF21005FE04000CFC040004FC04050
:1037B000004FC048404FC048400B0B160C00FF04A0
:1037C000007FC040407FC040407FC040407FC00479
:1037D000405220BFA00B0B160C00FF7FC044407F5F
:1037E000C044407FC004001B00E0E01100110061F4
:1037F000000B0B160C00FFFFE0040008007FE049FF
:10380000204F2049204F20492049207FE00B0B16F4
:103810000C00FFFDE056407940388055409220FF73
:10382000E0040027C02400FFE00B0B160C00FFFB98
:103830008052007BE01240FA4014403F8020803FDD
:103840008020803F800B0B160C00FF1FE02000271C
:10385000C06440A7C020002FE0282027C0210023FB
:10386000000B0B160C00FFF3E082208220FA20826E
:103870002082208A20B220C2E0020002000B0B1638
:103880000C00FF248046A095C0E48027E04480F52A
:10389000C006A03480C48007E00B0B160C00FF2785
:1038A000C0410087E0E02022804580F2800FE030B8
:1038B00080C14002200B0B160C00FF020002002208
:1038C0000023C0220022002200220022002200FF4A
:1038D000E0090B160C00FF08000800FF80888088B4
:1038E000808880FF80888088808880FF800B0B160E
:1038F0000C00FF210053A04100F7E0510053C056D7
:103900004053C05A4053C042400B0B160C00FF7F7F
:10391000C0040004000400FFE00A000A00120022B4
:1039200020422081E00B0B160C00FF110021002F1C
:10393000E06100A38023802540254029202100212B
:10394000000B0B160C00FFF7E09420F42097E09496
:1039500080F48097E09480F4A0966004200B0B160E
:103960000C00FF7BE0948004007FC00400FFE001B6
:1039700000FFE02100110007000B0B160C00FF21D7
:103980000047C091002FE06080AFE02080248022BB
:1039900080208023800B0B160C00FF27C02440F7EB
:1039A000C02EE02AA03EE0E1002FE0238025406900
:1039B000200B0B160C00FF140027E02A006200A366
:1039C000C02200220023E02200220022000006097B
:1039D00000FE070192032120FFFF08FF07FF000000
:1039E000000600000107070602008080808080003A
:1039F00080030202060105A0A0050707060000508B
:103A000050F850F850500507070600002078A070C5
:103A100028F020050707060000C0C81020409818AD
:103A20000507070600006090A040A8906802030305
:103A3000060104C040800307070601002040808083
:103A4000804020030707060100804020202040809E
:103A500005050506000120A870A82005050506003B
:103A6000012020F820200203030602FFC040800549
:103A70000101060003F8020202060200C0C00505AB
:103A800005060001081020408005070706000070A9
:103A900088888888887003070706010040C0404076
:103AA0004040E0050707060000708808708080F835
:103AB000050707060000F81020100808F0050707A2
:103AC00006000010305090F810100507070600009F
:103AD000F880F008088870050707060000708080ED
:103AE000F0888870050707060000F80810202020DD
:103AF0002005070706000070888870888870050711
:103B0000070600007088887808087002050506021C
:103B100000C0C000C0C00206060602FFC0C000C050
:103B20004080040707060000102040804020100558
:103B30000303060002F800F80407070601008040AE
:103B4000201020408005070706000070880810201C
:103B5000002005070706000070880868A8A87005FF
:103B60000707060000708888F88888880507070618
:103B70000000F08888F08888F005070706000070CC
:103B8000888080808870050707060000F088888894
:103B90008888F0050707060000F88080F08080F82C
:103BA000050707060000F88080F080808005070781
:103BB000060000708880B888887005070706000036
:103BC000888888F888888801070706020080808036
:103BD00080808080050707060000381010101090C4
:103BE000600507070600008890A0C0A09088050720
:103BF00007060000808080808080F80507070600A7
:103C00000088D8A888888888050707060000888863
:103C1000C8A89888880507070600007088888888E3
:103C20008870050707060000F08888F0808080050E
:103C3000070706000070888888A8906805070706AF
:103C40000000F08888F0A09088050707060000783B
:103C50008080700808F0050707060000F820202083
:103C6000202020050707060000888888888888703B
:103C70000507070600008888888888502005070700
:103C80000600008888888888A85005070706000075
:103C90008888502050888805070706000088888893
:103CA00050202020050707060000F808102040805B
:103CB000F8030707060100E08080808080E00505AA
:103CC000050600018040201008030707060100E0F8
:103CD0002020202020E00503030600042050880552
:103CE0000101060000F802020206020580400505F7
:103CF0000506000070087888780507070600008030
:103D000080B0C88888F005050506000070808088AE
:103D10007005070706000008086898888878050578
:103D2000050600007088F88070050707060000305F
:103D300048E0404040400506060600FF708888784D
:103D400008700507070600008080B0C888888801D1
:103D50000707060200800080808080800308080634
:103D600001FF200020202020A040040707060000BB
:103D7000808090A0C0A090030707060100C04040CB
:103D8000404040E0050505060000D0A8A8A8A80509
:103D90000505060000B0C8888888050505060000EE
:103DA00070888888700506060600FFF08888F08015
:103DB000800506060600FF7888887808080505054E
:103DC000060000B0C88080800505050600007080F0
:103DD0007008F00407070600004040E04040403013
:103DE0000505050600008888889868050505060011
:103DF0000088888850200505050600008888A8A846
:103E00005005050506000088502050880506060666
:103E100000FF888888780870050505060000F810FE
:103E20002040F80307070601002040408040402062
:103E300001070706020080808080808080030707DA
:103E4000060100804040204040800502020600023A
:103E5000689000000006000000000006000000005E
:103E60000006000000000006000000000006000040
:103E70000000000600000000000600000000000630
:103E80000000000000060000000000060000000026
:103E90000006000000000006000000000006000010
:103EA0000000000600000000000600000000000600
:103EB00000000000000600000000000600000000F6
:103EC00000060000000000060000000000060000E0
:103ED00000000006000000000006000000000006D0
:103EE00000000000000600000000000600000000C6
:103EF00000060000000000060000000000060000B0
:103F0000000000060000000000060000000000069F
:103F1000000000000006000000000006000001078D
:103F20000706020080008080808080050707060069
:103F3000002070A8A0A870200507070600003040E8
:103F400040E04050A80505050600008870507088C4
:103F5000050707060000885020F820F82001070711
:103F6000060200808080008080800508080600002E
:103F70003048205050209060030101060107A00541
:103F80000707060000F888B8B8B888F805070706DC
:103F90000001700878887800F805050506000128FA
:103FA00050A05028050303060001F8080802020289
:103FB0000602064080050707060000F888A88898D2
:103FC000A8F8050101060006F804040406000360D1
:103FD0009090600507070600002020F8202000F8D8
:103FE00004050506000360902040F0030505060067
:103FF00003E020E020E002020206020640800508FD
:10400000080600FF8888888898E8808005070706EA
:10401000000078989878181818020202060202C068
:10402000C00202020602FF408003050506000340AD
:10403000C04040E0050707060001708888887000CE
:10404000F8050505060001A0502850A00507070641
:1040500000008890A858B8080805070706000088DF
:1040600090B848982038050808060000C040C048AD
:10407000D83808080507070600002000204080887F
:10408000700508080600004020007088F888880540
:1040900008080600001020007088F88888050808C5
:1040A0000600002050007088F8888805080806007F
:1040B000006890007088F88888050808060000509D
:1040C00000708888F88888050808060000205020BD
:1040D0007088F888880507070600003860A0B8E0F7
:1040E000A0B80508080600FF7088808088702060EE
:1040F000050808060000402000F880F080F8050858
:1041000008060000081000F880F080F8050808068E
:104110000000205000F880F080F805070706000036
:104120005000F880F080F803080806010080400085
:10413000E0404040E0030808060100204000E04065
:104140004040E003080806010040A000E040404075
:10415000E0030707060100A000E0404040E005073B
:1041600007060000704848E848487005080806003F
:104170000068900088C8A8988805080806000040D4
:104180002070888888887005080806000010207054
:10419000888888887005080806000020500070880C
:1041A0008888700508080600006890007088888874
:1041B000700508080600005000708888888870051F
:1041C000050506000188502050880508080600FFF4
:1041D0001070A8A8A8A87040050808060000402094
:1041E000888888888870050808060000102088885C
:1041F0008888887005080806000020500088888894
:104200008870050808060000500088888888887033
:1042100005080806000010208850202020200509ED
:10422000090600FFC040704848704040E00408089C
:104230000601FF609090A09090E0800508080600BD
:1042400000402000700878887805080806000010F3
:1042500020007008788878050808060000205000C3
:1042600070087888780508080600006890007008D3
:10427000788878050707060000500070087888786D
:104280000508080600002050207008788878050688
:1042900006060000D02878A0A8500506060600FFF4
:1042A00070808870206005080806000040200070BB
:1042B00088F880700508080600001020007088F853
:1042C00080700508080600002050007088F8807093
:1042D00005070706000050007088F8807003080882
:1042E00006010080400040C04040E003080806018D
:1042F0000020400040C04040E003080806010040A4
:10430000A00040C04040E0030707060100A00040B5
:10431000C04040E0050707060000A040A0107888D4
:1043200070050808060000689000B0C888888805F5
:10433000080806000040200070888888700508087A
:1043400006000010200070888888700508080600A4
:1043500000205000708888887005080806000068F2
:10436000900070888888700507070600005000706C
:10437000888888700505050600012000F8002005E2
:1043800007070600FF1070A8A8A8704005080806D7
:10439000000040200088888898680508080600000A
:1043A00010200088888898680508080600002050BA
:1043B00000888888986805070706000050008888EC
:1043C0008898680509090600FF102000888888F889
:1043D00008700407070601FFC04060506040E00518
:1043E00008080600FF5000888888780870000609D1
:1043F00000FE000000000001090008FE00000508A2
:104400000806000040F0C88888987810050808065B
:104410000000C0F88888888888F80505050600012E
:104420002030F830200508080600002070F8202011
:104430002020E00509090600FF2070A8A8B8888898
:1044400070200509090600FFE080C0B0A8283028C8
:10445000280509090600FFF8A88888888888A8F830
:10446000050A0A0600FE205050505088A8A88870FF
:1044700003030306000340A04000B3CE91CE1124F5
:104480001FBECFEFD1E2DEBFCDBF00E00CBF14E016
:10449000A0E0B2E0E6E6F8EC01E00BBF02C0079056
:1044A0000D92A435B107D9F72AE1A4E5B4E001C023
:1044B0001D92AD32B207E1F712E2CEE3D2E200E0A4
:1044C00006C021970109802FFE010E949FE3CD3392
:1044D000D10780E00807A9F70E94CDCF0C9422E411
:1044E0000C9400000895089580917B0F882341F07B
:1044F000813019F481E190E108958AE090E1089516
:1045000084E190E1089580917B0F882341F0813010
:1045100019F488EE9FE008958EED9FE008958DEEEA
:104520009FE0089580917B0F882341F0813019F43A
:1045300087ED9FE0089583ED9FE008958AED9FE069
:10454000089580917B0F882341F0813019F489EC24
:104550009FE0089582EC9FE008958CEC9FE0089521
:1045600080917B0F882341F0813019F486EB9FE026
:1045700008958FEA9FE008958BEB9FE00895809166
:104580007B0F882341F0813019F483EA9FE008957E
:104590008CE99FE0089588EA9FE0089580917B0F61
:1045A000882341F0813019F480E99FE0089589E87B
:1045B0009FE0089585E99FE0089511982FB787FD42
:1045C00063C0F894909102019E7F909302012FBFE7
:1045D000119A000011982FB786FD74C0F89490913D
:1045E00002019E7F909302012FBF119A0000119843
:1045F0002FB785FD62C0F894909102019E7F909341
:1046000002012FBF119A000011982FB784FD50C0EE
:10461000F894909102019E7F909302012FBF119A0E
:10462000000011982FB783FD3EC0F89490910201CD
:104630009E7F909302012FBF119A000011982FB70F
:1046400082FD2CC0F894909102019E7F909302010C
:104650002FBF119A000011989FB781FD1AC0F894DE
:10466000809102018E7F809302019FBF119A00000A
:1046700011989FB7F894809102018E7F8093020178
:104680009FBF119A00000895F894909102019160E3
:104690009CCFF894809102018160E5CFF8949091CD
:1046A00002019160D3CFF894909102019160C1CF43
:1046B000F894909102019160AFCFF894909102012B
:1046C00091609DCFF8949091020191608BCF880FFB
:1046D000991F880F991FFC01E858F64F40815181BE
:1046E00062817381875E9D4EFC01408351836283AA
:1046F0007383E0917609F091770982899389A4897F
:10470000B5898093400A9093410AA093420AB093DE
:10471000430A0895EF92FF920F931F93CF93DF9375
:10472000E0907609F0907709F70182819381A48166
:10473000B581181619061A061B06DCF480913B0A8F
:1047400080FF17C08091120A9CB195FB992790F9C0
:104750008E7F89278093120A9091110A9170892384
:1047600041F08091251281608093251290E080E0D5
:10477000AEDFF70186819781A085B18518161906ED
:104780001A061B0614F580913B0A81FF1EC080911A
:10479000120A9091030191FB002700F910E0119596
:1047A0000195110908270270112780278093120AAA
:1047B0000091110A0270082341F080912512826055
:1047C0008093251281E090E082DFF7018285938556
:1047D000A485B585181619061A061B061CF58091C6
:1047E0003B0A82FF1FC08091120A99B193FB99275F
:1047F00090F9C92FF0E0DF2FD195C195D109C827D5
:10480000C470DD278C278093120AC091110AC470EE
:10481000C82341F08091251284608093251282E0A4
:1048200090E055DF8091120A8093110ADF91CF91B9
:104830001F910F91FF90EF900895CF92DF92EF922A
:10484000FF92CF93DF93EC01039731F46F3F11F4A4
:104850006091A70F6093650F0E9432B56B017C01D8
:1048600024EA30E74DE75FE36091B00A7091B10A46
:104870008091B20A9091B30A0E9428DA87FD19C08C
:104880008AEF90E0A0E0B0E08C0D9D1DAE1DBF1D35
:104890008093660F9093670FA093680FB093690F92
:1048A000C0933B02DF91CF91FF90EF90DF90CF90CC
:1048B000089580E090E0DC01E7CF0F931F93CF9342
:1048C000DF93CDB7DEB76E970FB6F894DEBF0FBE9D
:1048D000CDBF8091770F9091780F8E010F5F1F4FA2
:1048E000181619060CF067C08091CA0F8F9380913B
:1048F000C90F8F9380E095E19F938F931F930F9340
:104900000E94C1D9C8010E94E5AE8091C20F8F9369
:104910008091C10F8F9387EF94E19F938F931F93A3
:104920000F930E94C1D9C8010E94E5AE8DEE94E1BB
:1049300090934514809344140E943F7D8091CC0F46
:104940008F938091CB0F8F9389EE94E19F938F93F8
:104950001F930F930E94C1D9C8010E94E5AE8FED4D
:1049600094E190934514809344140E943F7D81E02C
:1049700090E090937A0F8093790F0FB6F894DEBF92
:104980000FBECDBF80915C16882319F081E0809323
:104990005B160E94F6B66FEF82EC94E10E942AC388
:1049A0006E960FB6F894DEBF0FBECDBFDF91CF91EC
:1049B0001F910F9108958091AB0A8F938091AA0A5D
:1049C0008F9386ED94E19F938F931F930F930E9493
:1049D000C1D9C8010E94E5AE8091A90A8F93809148
:1049E000A80A8F938DEC94E19F938F931F930F935D
:1049F0000E94C1D9C8010E94E5AE83EC94E1909376
:104A00004514809344140E943F7DB7CF9F92AF928C
:104A1000BF92CF92DF92EF92FF920F931F93CF93AB
:104A2000DF935B01E9014A3009F4CAC0453109F05E
:104A30006DC0DB011296ED91FC91F280C681D781A9
:104A40009FB7F894809102018260809302019FBF1A
:104A500088E290E00197F1F7EF2CE29420EFE22258
:104A600030E1932E9F0C48E2C42ED12C0E9498B1C5
:104A7000C6010197F1F7BFE1BF1508F48AC08F2D79
:104A8000807780689ADD8E2D98DDC6010197F1F759
:104A90000E9402B10E944DB1C6010197F1F70E9438
:104AA000B7B0C6010197F1F78E01005F1F4F8881F3
:104AB000807F83DD89918295807F7FDDC017D1075C
:104AC000B1F7C6010197F1F7F394E0E1EE0EF910AA
:104AD000CDCF9FB7F894809102018D7F8093020122
:104AE0009FBFD50112960D911C91C8010E9494B7E9
:104AF000811173C1DF91CF911F910F91FF90EF90C2
:104B0000DF90CF90BF90AF909F900895FB010281FE
:104B100013814451443308F051C0E42FF0E088275A
:104B2000EB56FA4D8F4F0C949FE395267525DE25A5
:104B3000DD26DE25DE25DE25DE25DE25DE25DE255D
:104B4000DE25DE25DE25DE25DE25DE25DE25DE254D
:104B5000DE25DE25DE25DE25DE25DE25DE25DE253D
:104B6000DE25DE25DE25D726DE25DE25DE25DE2533
:104B7000DE25DE25DE25DE25A826DE25DE25DE2552
:104B8000DE25DE25DE25DE25DE25DE25DE25FA26F0
:104B9000DA2580EE8F0D8068807F0FDD8F2D829566
:104BA000807F0BDDC6010197F1F70E9402B10E94E0
:104BB00002B172CFD80111968C91888381E09ACF8F
:104BC000809101018260809301019FB7F8948091E8
:104BD00002018D7F809302019FBF8091010181605E
:104BE000809301019FB7F894809102018E7F80939A
:104BF00002019FBF099A119A9FB7F8948091020110
:104C00008260809302019FBF88E290E00197F1F7F4
:104C100088E790E0CEE9DFE0FE013197F1F70197F8
:104C2000D9F70E9498B108E210E0C8010197F1F7A6
:104C30000E944DB10E9402B1C8010197F1F70E9494
:104C40004DB180E1BADCC8010197F1F7CE010197BF
:104C5000F1F7CE010197F1F7CE010197F1F7CE01FF
:104C60000197F1F7CE010197F1F7CE010197F1F726
:104C7000CE010197F1F7CE010197F1F7CE0101972F
:104C8000F1F7CE010197F1F7CE010197F1F7CE01CF
:104C90000197F1F7CE010197F1F7CE010197F1F7F6
:104CA0002197F1F780E389DC80EE87DCC80101976A
:104CB000F1F7F12CD0E08D2F807780687EDC8F2D8E
:104CC0007CDCC8010197F1F70E9402B10E944DB14E
:104CD000C8010197F1F70E94B7B0C8010197F1F739
:104CE000C0E20E944DB10E944DB1C8010197F1F799
:104CF000C150B9F70E9498B1C8010197F1F7DF5F81
:104D000080E1F80ED032B9F60E944DB180EC55DC4E
:104D1000C8010197F1F79FB7F894809102018D7F48
:104D2000809302019FBF81E0E5CED80115964C919A
:104D3000159750E0440F551F70E060E016968D9176
:104D40009C910E94C5E3C8010E94AAB781E0D2CE1F
:104D500089812B81D80112967C91129713963C91F0
:104D6000213009F467C0233009F048C048EF480FEC
:104D7000582F91E0341708F490E031E0541708F010
:104D800030E0492F432B61E0571708F460E04623D9
:104D900019F4932309F412CFFA8030E0F901E356B5
:104DA000FD4FD08027563D4FF901E08040C0B9014A
:104DB000C8010E947EB781E09DCE1882D80112966C
:104DC0008C911297898315968C91159781508A83BF
:104DD00013968C918B8381E08DCEF801458150E054
:104DE000440F551F70E060E0868197810E94C5E303
:104DF00081E080CEF80185818883E0CE381708F401
:104E0000DDCE871708F4DACEFA80E12CD12C2430DD
:104E100070F4C3CFBE01C8010E947EB7898198811A
:104E20009D0D98838E0D8983FF0C09F4C7CEF7FE84
:104E3000F6CFF0CF58E0580F482F9BCFDF92EF927C
:104E4000FF920F931F93CF93DF93EC01D62E1AADF1
:104E500009AD7C0184E0E80EF11CE98DFA8DC701F3
:104E60001995412F480F2D2D602FC7010E941EBAA2
:104E700099AD890F89AF81E090E0DF91CF911F91CB
:104E80000F91FF90EF90DF9008954F925F926F9295
:104E90007F92AF92BF92CF92DF92EF92FF920F93E9
:104EA0001F93CF93DF938C01EB01FC0147A050A42B
:104EB00061A472A4AFA0B8A4C9A4DAA49501A60104
:104EC000C301B2010E9428DA87FF3EC0A30192010C
:104ED000C301B2010E948DDA2B013C01F80163A9E4
:104EE00074A985A996A990589B01AC010E94B0E0D5
:104EF000F80127A530A941A952A90E948DDA9B018A
:104F0000AC01C301B2010E94AFE00E941CE37B012F
:104F10008C019B01AC01B501C6010E9428DA87FF14
:104F200002C0750186019701A801B501C6010E9462
:104F300028DA882349F0C701D8018FA398A7A9A729
:104F4000BAA7888181608883DF91CF911F910F91EB
:104F5000FF90EF90DF90CF90BF90AF907F906F90D9
:104F60005F904F9008954F925F926F927F928F92D1
:104F70009F92AF92BF92CF92DF92EF92FF92CF9328
:104F8000DF93CDB7DEB76A970FB6F894DEBF0FBEDA
:104F9000CDBF9A8F898F5B014A01DC01D7966D9155
:104FA0007D918D919C91DA970E942CDA6B017C01A6
:104FB000F50120813181428153810E948DDA0E9466
:104FC00076E10E94F9E13B015C01D4012D913D9114
:104FD0004D915C91C701B6010E948DDA0E9476E185
:104FE0000E94F9E16D827E82AF82B8862D813E817A
:104FF0004F815885283731054105510540F428E790
:1050000030E040E050E02D833E834F835887698332
:105010007A838B839C8389819A81AB81BC81883719
:105020009105A105B10540F428E730E040E050E0EB
:1050300029833A834B835C83E98DFA8DED5BFF4FC7
:1050400080819181A281B3818D879E87AF87B88B44
:10505000BC01CD010E942EDA69877A878B879C87F5
:105060006D817E818F8198850E942CDA698B7A8B85
:105070008B8B9C8B20E030E0A90169857A858B853C
:105080009C850E9428DA882309F432C1A701960181
:10509000C701B6010E948DDA4B015C0129893A896A
:1050A0004B895C89CA01B9010E948DDA9B01AC0170
:1050B000C501B4010E94AFE04B015C0129853A852E
:1050C0004B855C85CA01B9010E94B0E09B01AC012F
:1050D000C501B4010E948CE10E9476E10E94F4E1D6
:1050E0002B013C016D857E858F85988990958095F3
:1050F000709561957F4F8F4F9F4F0E942EDA4B0125
:105100005C0169817A818B819C810E942CDA6D8798
:105110007E878F87988B20E030E0A901C501B4011C
:105120000E9428DA882309F4E7C02D853E854F8543
:105130005889CA01B9010E948DDA6D8B7E8B8F8BE5
:10514000988FA7019601C701B6010E948DDA9B01D5
:10515000AC016D897E898F89988D0E94AFE06B01CB
:105160007C01A5019401C501B4010E94B0E09B013E
:10517000AC01C701B6010E948CE10E9425E2A98D15
:10518000BA8D52968D909D90AD90BC9055977501BB
:105190006401C418D508E608F7080E94F4E1C61AAD
:1051A000D70AE80AF90AF7FE67C020E030E0A90153
:1051B00069857A858B859C850E9428DA882309F485
:1051C0009FC0C501B4010E942CDA6B017C012985C6
:1051D0003A854B855C85CA01B9010E94B0E09B010C
:1051E000AC01C701B6010E948DDA6B017C012989EF
:1051F0003A894B895C89CA01B9010E948DDA9B0109
:10520000AC01C701B6010E94AFE06B017C012D85A6
:105210003E854F855889CA01B9010E948DDA9B01EC
:10522000AC01C701B6010E94B0E06B017C0120E037
:1052300030E040E850E469857A858B859C850E9442
:105240008DDA9B01AC01C701B6010E948CE10E947E
:1052500076E10E94F4E12B013C0177FE03C0412C72
:10526000512C3201481459046A047B0410F02401C3
:105270003501C12CD12C76018FB7F894E98DFA8DC8
:10528000908193FD1FC0DF01468A578A608E718E20
:10529000C40CD51CE61CF71CC28ED38EE48EF58E92
:1052A0002D813E814F81588523AF34AF45AF56AF36
:1052B000DF9629813A814B815C812D933D934D93FB
:1052C0005C9313978FBF6A960FB6F894DEBF0FBE3C
:1052D000CDBFDF91CF91FF90EF90DF90CF90BF9047
:1052E000AF909F908F907F906F905F904F900895B8
:1052F00060E070E0CB01F0CE60E070E0CB013DCF2C
:1053000060E070E0CB01A3CF10925B160E94DDB687
:1053100088EB94E190934514809344140E943F7D60
:105320008091A50F9091A60F9093A90A8093A80A47
:105330008091A30F9091A40F9093AB0A8093AA0A37
:105340008AEA90E09093A60F8093A50F1092A40F85
:105350001092A30F6FEF82EC94E10C942AC380911A
:10536000900A8630D8F496E0899FF0011124E45920
:10537000F54F2091490230914A02318320834091B8
:105380002712509128126091291270912A1242839B
:105390005383648375838F5F8093900A089520916F
:1053A000490230914A0228173907D9F090934A02EE
:1053B0008093490240932712509328126093291238
:1053C00070932A12815B994321F410926E0F109210
:1053D000900A82E08093510281E08093640F1092E2
:1053E000740F089521E020936E0F6093B00A7093BC
:1053F000B10A8093B20A9093B30A40E050E0BA0138
:105400008091B50A9091B60ACACF60E070E080E260
:1054100091E4E8CF60E070E080E89FE3E3CF6DECDB
:105420007CEC8CEC9DE3DECF40E050E0BA0181EBF8
:1054300099E3B5CF4091BB095091BC098091B30964
:105440009091B4092091B7093091B809121613064A
:1054500054F42E3161E0360714F02DE131E0309341
:10546000A60F2093A50F97FD09C08739910514F069
:1054700086E990E09093A40F8093A30F5093B00916
:105480004093AF09D1CF4091B9095091BA098091A9
:10549000B1099091B2092091B5093091B60912165F
:1054A000130654F42E3161E0360714F02DE131E09B
:1054B0003093A60F2093A50F97FD09C0873991055A
:1054C00014F086E990E09093A40F8093A30F50937B
:1054D000B0094093AF09A8CFE091900AEE2381F084
:1054E000E150E093900A86E0E89FF0011124E4592E
:1054F000F54F4281538164817581808191814FCFC5
:1055000093CF9F92AF92BF92CF92DF92EF92FF9292
:105510000F931F93CF93DF931092730F80912712F5
:1055200090912812A0912912B0912A1281309048AE
:10553000A105B10540F01092271210922812109286
:10554000291210922A12C09127128091BF0A1816B0
:10555000DCF4282F082E000C330B215031094C2F7E
:105560000C2E000C550B4217530774F0CFEFC80FE9
:105570008C2F90E0B0E0A0E0809327129093281247
:10558000A0932912B0932A121092640F8091630F96
:10559000C81714F4C093630F8091630F082E000C9A
:1055A000990B04962C2F0C2E000C330B82179307AB
:1055B00024F48CEF8C0F8093630FD091630FAD2E8A
:1055C00015E0B12EBD0E11E004E00D1B83E0F82EB6
:1055D000FD1A82E0E82EED1A912E9D1AD1112DC0F0
:1055E0008091750F811116C080915102882359F066
:1055F0000E947422AC016A2D619581E0C11180E0A6
:1056000024E00E9471C2DF5FDB11E8CF85E0809368
:10561000BF0A07C0C111E8CF5FDF8091640F882304
:1056200019F3DF91CF911F910F91FF90EF90DF90D1
:10563000CF90BF90AF909F900895D13009F04CC0AB
:105640008091750F811124C0809151028823D9F275
:1056500080917B0FB1E9CB2EBAE1DB2E882351F08C
:10566000F7E8CF2EFAE1DF2E813021F0ADE7CA2E28
:10567000AAE1DA2E81E09AE00E943CBB9C0181E025
:10568000C13009F080E0A601692D0E9479B3BBCF3B
:10569000C130D1F6C093730F10926F0F1092700F3C
:1056A0001092710F1092720F80917B0F882329F056
:1056B000813079F08DE79AE102C081E99AE161E0F9
:1056C0007AE00E94ADB28091640F882309F4BCCFC8
:1056D000A8CF87E89AE1F3CFD23009F0BEC080911D
:1056E000750F811123C080915102882309F48BCF5B
:1056F00080917B0FEFEACE2EEAE1DE2E882351F077
:1057000065EAC62E6AE1D62E813021F07BE9C72EEC
:105710007AE1D72E85E09AE00E943CBB9C0181E0B3
:10572000C23009F080E0A6016E2DAFCFC230D9F6AD
:105730001093730F10926F0F1092700F1092710FE1
:105740001092720F80917B0F882329F0813079F0BD
:105750008BE99AE102C08FEA9AE165E07AE00E9463
:10576000ADB28091640F882309F4BDCF5ACF85EA8A
:105770009AE1F3CF8091750F811123C0809151027E
:10578000882309F440CF80917B0F5DECC52E5AE150
:10579000D52E882351F033ECC32E3AE1D32E81303D
:1057A00021F049EBC42E4AE1D42E89E09AE00E9410
:1057B0003CBB9C0181E0C33009F080E0A6016F2D65
:1057C00064CFC330D9F61093730F10926F0F1092FD
:1057D000700F1092710F1092720F80917B0F8823BF
:1057E00029F0813079F089EB9AE102C08DEC9AE1E1
:1057F00069E07AE00E94ADB28091640F882309F4D9
:10580000BDCF0FCF83EC9AE1F3CFC43081F5109375
:10581000730F10926F0F1092700F1092710F109201
:10582000720F80917B0F882329F0813071F087ED12
:105830009AE102C08BEE9AE16DE07AE00E94ADB28F
:105840008091640F882399F0ECCE81EE9AE1F4CF39
:1058500081EEC82E8AE1D82E1DC0D33009F48ACF3C
:10586000D43009F0D0CE8091750F8111CECF8091C8
:105870005102882309F4C7CE80917B0F2BEEC22EF4
:105880002AE1D22E882331F0813011F397EDC92E11
:105890009AE1D92E8DE09AE00E943CBB9C0181E008
:1058A000C43009F080E0A601602FEFCE2F923F9226
:1058B0004F925F926F927F928F929F92AF92BF9220
:1058C000CF92DF92EF92FF920F931F93CF93DF93CC
:1058D00000D000D0CDB7DEB71092730F80912712A1
:1058E00090912812A0912912B0912A1281309048EB
:1058F000A105B10540F010922712109228121092C3
:10590000291210922A12409127124D838091BE0ACB
:105910001816CCF4282F082E000C330B2150310917
:10592000042E000C550B421753076CF081508D83E9
:1059300090E0B0E0A0E08093271290932812A0930B
:105940002912B0932A121092640F8091630F9D81E7
:10595000981714F49093630F8091630F082E000C36
:10596000990B04964D81242F042E000C330B8217C3
:10597000930724F4842F84508093630F8091630FE6
:105980008E838A83982F9B5F998353E0D52ECC24F6
:10599000C39484E02E81821B8B836AE0862E912C37
:1059A000A12CB12C7EEA472E72E8572E6624639410
:1059B000712C4D2D421B4C8382E0282E221A3C2C48
:1059C000321A8E8181113FC08091750F81111AC0EA
:1059D00080915102882361F00E947422AC016A8197
:1059E000619581E02D81211180E024E00E9471C247
:1059F0009E819F5F9E8329819213E3CF85E08093F0
:105A0000BE0A08C09D819111E3CF66DD8091640FCD
:105A10008823F1F226960FB6F894DEBF0FBECDBFF5
:105A2000DF91CF911F910F91FF90EF90DF90CF907A
:105A3000BF90AF909F908F907F906F905F904F90AE
:105A40003F902F9008954E81413009F04CC08091D5
:105A5000750F81110DC080915102882349F2809108
:105A60007B0F882341F18130D9F18DE19AE125C086
:105A70008D81813081F780917B0F882329F08130DF
:105A8000B9F08DE19AE102C08DE29AE1E12C10E8D3
:105A9000F12E07E714E420E030E040E85FE361EF37
:105AA00079E00E94B0C78091640F8823A1F2B2CF41
:105AB00085E29AE1EBCF8DE29AE1DF922EED2F9312
:105AC0001F92CF9221EF39E03F932F939F938F93B3
:105AD0003F9281E09D81913009F452C080E050C036
